{
  "abi": [
    {
      "type": "constructor",
      "inputs": [],
      "stateMutability": "nonpayable"
    },
    {
      "type": "function",
      "name": "ackPacket",
      "inputs": [
        {
          "name": "receiver",
          "type": "address",
          "internalType": "address"
        },
        {
          "name": "channelId",
          "type": "bytes32",
          "internalType": "bytes32"
        },
        {
          "name": "sequence",
          "type": "uint64",
          "internalType": "uint64"
        },
        {
          "name": "ack",
          "type": "tuple",
          "internalType": "struct AckPacket",
          "components": [
            {
              "name": "success",
              "type": "bool",
              "internalType": "bool"
            },
            {
              "name": "data",
              "type": "bytes",
              "internalType": "bytes"
            }
          ]
        }
      ],
      "outputs": [],
      "stateMutability": "nonpayable"
    },
    {
      "type": "function",
      "name": "acknowledgement",
      "inputs": [
        {
          "name": "receiver",
          "type": "address",
          "internalType": "address"
        },
        {
          "name": "channelId",
          "type": "bytes32",
          "internalType": "bytes32"
        },
        {
          "name": "sequence",
          "type": "uint64",
          "internalType": "uint64"
        }
      ],
      "outputs": [],
      "stateMutability": "nonpayable"
    },
    {
      "type": "function",
      "name": "closeIbcChannel",
      "inputs": [
        {
          "name": "channelId",
          "type": "bytes32",
          "internalType": "bytes32"
        }
      ],
      "outputs": [],
      "stateMutability": "nonpayable"
    },
    {
      "type": "function",
      "name": "connectIbcChannel",
      "inputs": [
        {
          "name": "portAddress",
          "type": "address",
          "internalType": "address"
        },
        {
          "name": "channelId",
          "type": "bytes32",
          "internalType": "bytes32"
        }
      ],
      "outputs": [],
      "stateMutability": "nonpayable"
    },
    {
      "type": "function",
      "name": "openIbcChannel",
      "inputs": [
        {
          "name": "portAddress",
          "type": "address",
          "internalType": "address"
        },
        {
          "name": "version",
          "type": "string",
          "internalType": "string"
        },
        {
          "name": "ordering",
          "type": "uint8",
          "internalType": "enum ChannelOrder"
        },
        {
          "name": "feeEnabled",
          "type": "bool",
          "internalType": "bool"
        },
        {
          "name": "connectionHops",
          "type": "string[]",
          "internalType": "string[]"
        },
        {
          "name": "counterparty",
          "type": "tuple",
          "internalType": "struct CounterParty",
          "components": [
            {
              "name": "portId",
              "type": "string",
              "internalType": "string"
            },
            {
              "name": "channelId",
              "type": "bytes32",
              "internalType": "bytes32"
            },
            {
              "name": "version",
              "type": "string",
              "internalType": "string"
            }
          ]
        }
      ],
      "outputs": [],
      "stateMutability": "nonpayable"
    },
    {
      "type": "function",
      "name": "recvPacket",
      "inputs": [
        {
          "name": "receiver",
          "type": "address",
          "internalType": "address"
        },
        {
          "name": "channelId",
          "type": "bytes32",
          "internalType": "bytes32"
        },
        {
          "name": "sequence",
          "type": "uint64",
          "internalType": "uint64"
        }
      ],
      "outputs": [],
      "stateMutability": "nonpayable"
    },
    {
      "type": "function",
      "name": "sendPacket",
      "inputs": [
        {
          "name": "channelId",
          "type": "bytes32",
          "internalType": "bytes32"
        },
        {
          "name": "packet",
          "type": "bytes",
          "internalType": "bytes"
        },
        {
          "name": "timeoutTimestamp",
          "type": "uint64",
          "internalType": "uint64"
        },
        {
          "name": "sequence",
          "type": "uint64",
          "internalType": "uint64"
        }
      ],
      "outputs": [],
      "stateMutability": "nonpayable"
    },
    {
      "type": "function",
      "name": "timeout",
      "inputs": [
        {
          "name": "receiver",
          "type": "address",
          "internalType": "address"
        },
        {
          "name": "channelId",
          "type": "bytes32",
          "internalType": "bytes32"
        },
        {
          "name": "sequence",
          "type": "uint64",
          "internalType": "uint64"
        }
      ],
      "outputs": [],
      "stateMutability": "nonpayable"
    },
    {
      "type": "function",
      "name": "writeTimeoutPacket",
      "inputs": [
        {
          "name": "receiver",
          "type": "address",
          "internalType": "address"
        },
        {
          "name": "channelId",
          "type": "bytes32",
          "internalType": "bytes32"
        },
        {
          "name": "sequence",
          "type": "uint64",
          "internalType": "uint64"
        },
        {
          "name": "timeoutHeight",
          "type": "tuple",
          "internalType": "struct Height",
          "components": [
            {
              "name": "revision_number",
              "type": "uint64",
              "internalType": "uint64"
            },
            {
              "name": "revision_height",
              "type": "uint64",
              "internalType": "uint64"
            }
          ]
        },
        {
          "name": "timeoutTimestamp",
          "type": "uint64",
          "internalType": "uint64"
        }
      ],
      "outputs": [],
      "stateMutability": "nonpayable"
    },
    {
      "type": "event",
      "name": "Acknowledgement",
      "inputs": [
        {
          "name": "sourcePortAddress",
          "type": "address",
          "indexed": true,
          "internalType": "address"
        },
        {
          "name": "sourceChannelId",
          "type": "bytes32",
          "indexed": true,
          "internalType": "bytes32"
        },
        {
          "name": "sequence",
          "type": "uint64",
          "indexed": false,
          "internalType": "uint64"
        }
      ],
      "anonymous": false
    },
    {
      "type": "event",
      "name": "AcknowledgementError",
      "inputs": [
        {
          "name": "receiver",
          "type": "address",
          "indexed": true,
          "internalType": "address"
        },
        {
          "name": "error",
          "type": "bytes",
          "indexed": false,
          "internalType": "bytes"
        }
      ],
      "anonymous": false
    },
    {
      "type": "event",
      "name": "CloseIbcChannel",
      "inputs": [
        {
          "name": "portAddress",
          "type": "address",
          "indexed": true,
          "internalType": "address"
        },
        {
          "name": "channelId",
          "type": "bytes32",
          "indexed": true,
          "internalType": "bytes32"
        }
      ],
      "anonymous": false
    },
    {
      "type": "event",
      "name": "CloseIbcChannelError",
      "inputs": [
        {
          "name": "receiver",
          "type": "address",
          "indexed": true,
          "internalType": "address"
        },
        {
          "name": "error",
          "type": "bytes",
          "indexed": false,
          "internalType": "bytes"
        }
      ],
      "anonymous": false
    },
    {
      "type": "event",
      "name": "ConnectIbcChannel",
      "inputs": [
        {
          "name": "portAddress",
          "type": "address",
          "indexed": true,
          "internalType": "address"
        },
        {
          "name": "channelId",
          "type": "bytes32",
          "indexed": false,
          "internalType": "bytes32"
        }
      ],
      "anonymous": false
    },
    {
      "type": "event",
      "name": "ConnectIbcChannelError",
      "inputs": [
        {
          "name": "portAddress",
          "type": "address",
          "indexed": true,
          "internalType": "address"
        },
        {
          "name": "error",
          "type": "bytes",
          "indexed": false,
          "internalType": "bytes"
        }
      ],
      "anonymous": false
    },
    {
      "type": "event",
      "name": "OpenIbcChannel",
      "inputs": [
        {
          "name": "portAddress",
          "type": "address",
          "indexed": true,
          "internalType": "address"
        },
        {
          "name": "version",
          "type": "string",
          "indexed": false,
          "internalType": "string"
        },
        {
          "name": "ordering",
          "type": "uint8",
          "indexed": false,
          "internalType": "enum ChannelOrder"
        },
        {
          "name": "feeEnabled",
          "type": "bool",
          "indexed": false,
          "internalType": "bool"
        },
        {
          "name": "connectionHops",
          "type": "string[]",
          "indexed": false,
          "internalType": "string[]"
        },
        {
          "name": "counterpartyPortId",
          "type": "string",
          "indexed": false,
          "internalType": "string"
        },
        {
          "name": "counterpartyChannelId",
          "type": "bytes32",
          "indexed": false,
          "internalType": "bytes32"
        }
      ],
      "anonymous": false
    },
    {
      "type": "event",
      "name": "OpenIbcChannelError",
      "inputs": [
        {
          "name": "portAddress",
          "type": "address",
          "indexed": true,
          "internalType": "address"
        },
        {
          "name": "error",
          "type": "bytes",
          "indexed": false,
          "internalType": "bytes"
        }
      ],
      "anonymous": false
    },
    {
      "type": "event",
      "name": "RecvPacket",
      "inputs": [
        {
          "name": "destPortAddress",
          "type": "address",
          "indexed": true,
          "internalType": "address"
        },
        {
          "name": "destChannelId",
          "type": "bytes32",
          "indexed": true,
          "internalType": "bytes32"
        },
        {
          "name": "sequence",
          "type": "uint64",
          "indexed": false,
          "internalType": "uint64"
        }
      ],
      "anonymous": false
    },
    {
      "type": "event",
      "name": "SendPacket",
      "inputs": [
        {
          "name": "sourcePortAddress",
          "type": "address",
          "indexed": true,
          "internalType": "address"
        },
        {
          "name": "sourceChannelId",
          "type": "bytes32",
          "indexed": true,
          "internalType": "bytes32"
        },
        {
          "name": "packet",
          "type": "bytes",
          "indexed": false,
          "internalType": "bytes"
        },
        {
          "name": "sequence",
          "type": "uint64",
          "indexed": false,
          "internalType": "uint64"
        },
        {
          "name": "timeoutTimestamp",
          "type": "uint64",
          "indexed": false,
          "internalType": "uint64"
        }
      ],
      "anonymous": false
    },
    {
      "type": "event",
      "name": "Timeout",
      "inputs": [
        {
          "name": "sourcePortAddress",
          "type": "address",
          "indexed": true,
          "internalType": "address"
        },
        {
          "name": "sourceChannelId",
          "type": "bytes32",
          "indexed": true,
          "internalType": "bytes32"
        },
        {
          "name": "sequence",
          "type": "uint64",
          "indexed": true,
          "internalType": "uint64"
        }
      ],
      "anonymous": false
    },
    {
      "type": "event",
      "name": "TimeoutError",
      "inputs": [
        {
          "name": "receiver",
          "type": "address",
          "indexed": true,
          "internalType": "address"
        },
        {
          "name": "error",
          "type": "bytes",
          "indexed": false,
          "internalType": "bytes"
        }
      ],
      "anonymous": false
    },
    {
      "type": "event",
      "name": "WriteAckPacket",
      "inputs": [
        {
          "name": "writerPortAddress",
          "type": "address",
          "indexed": true,
          "internalType": "address"
        },
        {
          "name": "writerChannelId",
          "type": "bytes32",
          "indexed": true,
          "internalType": "bytes32"
        },
        {
          "name": "sequence",
          "type": "uint64",
          "indexed": false,
          "internalType": "uint64"
        },
        {
          "name": "ackPacket",
          "type": "tuple",
          "indexed": false,
          "internalType": "struct AckPacket",
          "components": [
            {
              "name": "success",
              "type": "bool",
              "internalType": "bool"
            },
            {
              "name": "data",
              "type": "bytes",
              "internalType": "bytes"
            }
          ]
        }
      ],
      "anonymous": false
    },
    {
      "type": "event",
      "name": "WriteTimeoutPacket",
      "inputs": [
        {
          "name": "writerPortAddress",
          "type": "address",
          "indexed": true,
          "internalType": "address"
        },
        {
          "name": "writerChannelId",
          "type": "bytes32",
          "indexed": true,
          "internalType": "bytes32"
        },
        {
          "name": "sequence",
          "type": "uint64",
          "indexed": false,
          "internalType": "uint64"
        },
        {
          "name": "timeoutHeight",
          "type": "tuple",
          "indexed": false,
          "internalType": "struct Height",
          "components": [
            {
              "name": "revision_number",
              "type": "uint64",
              "internalType": "uint64"
            },
            {
              "name": "revision_height",
              "type": "uint64",
              "internalType": "uint64"
            }
          ]
        },
        {
          "name": "timeoutTimestamp",
          "type": "uint64",
          "indexed": false,
          "internalType": "uint64"
        }
      ],
      "anonymous": false
    }
  ],
  "bytecode": {
    "object": "0x608060405234801561001057600080fd5b506109bd806100206000396000f3fe608060405234801561001057600080fd5b50600436106100935760003560e01c80639ca63cba116100665780639ca63cba146100e6578063b3333aa7146100f9578063b433efec1461010c578063baec95191461011f578063ffa594b61461013257600080fd5b806306f4b6f5146100985780632fde976f146100ad57806332d8ea53146100c05780638b24b4cb146100d3575b600080fd5b6100ab6100a6366004610439565b610145565b005b6100ab6100bb3660046104be565b610194565b6100ab6100ce3660046104be565b6101da565b6100ab6100e13660046104fa565b610229565b6100ab6100f436600461057f565b610259565b6100ab61010736600461065e565b6102c0565b6100ab61011a3660046104be565b6102fe565b6100ab61012d3660046106b1565b610344565b6100ab610140366004610718565b61038e565b84336001600160a01b03167fb5bff96e18da044e4e34510d16df9053b9f1920f6a960732e5aaf22fe9b8013686868587604051610185949392919061076b565b60405180910390a35050505050565b806001600160401b031682846001600160a01b03167f19ac40c4084d9bfb5b43f819a94bf01c70789b0d579871f59e4f86def04d934460405160405180910390a4505050565b6040516001600160401b038216815282906001600160a01b038516907fe46f6591236abe528fe47a3b281fb002524dadd3e62b1f317ed285d07273c3b1906020015b60405180910390a3505050565b604051819033907fe893e4ba0e364cdc96364b1e1e0d53b0d91e5fd6aa0ee9d81a17ecd61178bf1790600090a350565b6001600160a01b0388167f302d58680222aca6b36ce7b9a42191dce3989bd867cc20f4ec54f5e56301093488888888888861029489806107a0565b8a602001356040516102ae9998979695949392919061082b565b60405180910390a25050505050505050565b83856001600160a01b03167fedbcd9eeb09d85c3ea1b5bf002c04478059cb261cab82c903885cefccae374bc858585604051610185939291906108f1565b6040516001600160401b038216815282906001600160a01b038516907fde5b57e6566d68a30b0979431df3d5df6db3b9aa89f8820f595b9315bf86d0679060200161021c565b82846001600160a01b03167fa32e6f42b1d63fb83ad73b009a6dbb9413d1da02e95b1bb08f081815eea8db208484604051610380929190610936565b60405180910390a350505050565b816001600160a01b03167fec10e9c95bcd0a3561931a33a25adba5f809e8d25279a05da83a095e19f02add826040516103c991815260200190565b60405180910390a25050565b60008083601f8401126103e757600080fd5b5081356001600160401b038111156103fe57600080fd5b60208301915083602082850101111561041657600080fd5b9250929050565b80356001600160401b038116811461043457600080fd5b919050565b60008060008060006080868803121561045157600080fd5b8535945060208601356001600160401b0381111561046e57600080fd5b61047a888289016103d5565b909550935061048d90506040870161041d565b915061049b6060870161041d565b90509295509295909350565b80356001600160a01b038116811461043457600080fd5b6000806000606084860312156104d357600080fd5b6104dc846104a7565b9250602084013591506104f16040850161041d565b90509250925092565b60006020828403121561050c57600080fd5b5035919050565b8035801515811461043457600080fd5b60008083601f84011261053557600080fd5b5081356001600160401b0381111561054c57600080fd5b6020830191508360208260051b850101111561041657600080fd5b60006060828403121561057957600080fd5b50919050565b60008060008060008060008060c0898b03121561059b57600080fd5b6105a4896104a7565b975060208901356001600160401b03808211156105c057600080fd5b6105cc8c838d016103d5565b909950975060408b01359150600382106105e557600080fd5b8196506105f460608c01610513565b955060808b013591508082111561060a57600080fd5b6106168c838d01610523565b909550935060a08b013591508082111561062f57600080fd5b5061063c8b828c01610567565b9150509295985092959890939650565b60006040828403121561057957600080fd5b600080600080600060c0868803121561067657600080fd5b61067f866104a7565b9450602086013593506106946040870161041d565b92506106a3876060880161064c565b915061049b60a0870161041d565b600080600080608085870312156106c757600080fd5b6106d0856104a7565b9350602085013592506106e56040860161041d565b915060608501356001600160401b0381111561070057600080fd5b61070c8782880161064c565b91505092959194509250565b6000806040838503121561072b57600080fd5b610734836104a7565b946020939093013593505050565b81835281816020850137506000828201602090810191909152601f909101601f19169091010190565b60608152600061077f606083018688610742565b6001600160401b039485166020840152929093166040909101529392505050565b6000808335601e198436030181126107b757600080fd5b8301803591506001600160401b038211156107d157600080fd5b60200191503681900382131561041657600080fd5b6000808335601e198436030181126107fd57600080fd5b83016020810192503590506001600160401b0381111561081c57600080fd5b80360382131561041657600080fd5b60c08152600061083f60c083018b8d610742565b602060038b1061085f57634e487b7160e01b600052602160045260246000fd5b8381018b905289151560408501528382036060850152878252818101600589901b830182018a60005b8b8110156108c257858303601f190184526108a3828e6107e6565b6108ae858284610742565b958701959450505090840190600101610888565b505085810360808701526108d781898b610742565b9450505050508260a08301529a9950505050505050505050565b6001600160401b03848116825260808201908061090d8661041d565b166020840152806109206020870161041d565b1660408401529290921660609091015292915050565b6001600160401b03831681526040602082015261095282610513565b15156040820152600061096860208401846107e6565b6040606085015261097d608085018284610742565b969550505050505056fea2646970667358221220173f4f4c12932dea8196e637969417732801339e6cf8f4482be3aa21f7135ee464736f6c634300080f0033",
    "linkReferences": {}
  },
  "methodIdentifiers": {
    "ackPacket(address,bytes32,uint64,(bool,bytes))": "baec9519",
    "acknowledgement(address,bytes32,uint64)": "32d8ea53",
    "closeIbcChannel(bytes32)": "8b24b4cb",
    "connectIbcChannel(address,bytes32)": "ffa594b6",
    "openIbcChannel(address,string,uint8,bool,string[],(string,bytes32,string))": "9ca63cba",
    "recvPacket(address,bytes32,uint64)": "b433efec",
    "sendPacket(bytes32,bytes,uint64,uint64)": "06f4b6f5",
    "timeout(address,bytes32,uint64)": "2fde976f",
    "writeTimeoutPacket(address,bytes32,uint64,(uint64,uint64),uint64)": "b3333aa7"
  },
  "id": 2
}